:100000000C942A000C9434000C9434000C943400AA
:100010000C9434000C9434000C9434000C94340090
:100020000C9434000C9434000C9434000C94340080
:100030000C9434000C9434000C9434000C94340070
:100040000C9434000C9434000C9434000C94340060
:100050000C94340011241FBECFE5D8E0DEBFCDBF25
:100060000E949F010C94A4010C94000060E081E4C4
:100070000E948F0167E081E40C949A01CF93DF9393
:100080001F92CDB7DEB71982AE014F5F5F4F67E0B9
:1000900081E40E949D018981811105C060E081E4B5
:1000A0000E94950106C0813021F460E081E40E9445
:1000B00092010F90DF91CF910895823419F118F4D5
:1000C000813439F008958334A9F1843409F44AC0A5
:1000D000089541110AC02AB381E090E001C0880F61
:1000E0006A95EAF7809582230BC0413009F051C030
:1000F0002AB381E090E001C0880F6A95EAF7822B6D
:100100008ABB089541110AC027B381E090E001C085
:10011000880F6A95EAF7809582230AC04130C9F5B5
:1001200027B381E090E001C0880F6A95EAF7822B3F
:1001300087BB089541110AC024B381E090E001C05B
:10014000880F6A95EAF7809582230AC0413009F545
:1001500024B381E090E001C0880F6A95EAF7822B12
:1001600084BB089541110AC021B381E090E001C031
:10017000880F6A95EAF7809582230AC0413049F4D6
:1001800021B381E090E001C0880F6A95EAF7822BE5
:1001900081BB0895FA01823459F018F4813431F0AA
:1001A0000895833439F0843439F0089529B305C0B3
:1001B00026B303C023B301C020B381E090E0062E34
:1001C00002C0880F991F0A94E2F730E0822393233C
:1001D00002C0959587956A95E2F7808308958234E9
:1001E00019F118F4813439F008958334A9F1843475
:1001F00009F44AC0089541110AC02BB381E090E090
:1002000001C0880F6A95EAF7809582230BC04130C0
:1002100009F051C02BB381E090E001C0880F6A95CE
:10022000EAF7822B8BBB089541110AC028B381E005
:1002300090E001C0880F6A95EAF7809582230AC092
:100240004130C9F528B381E090E001C0880F6A957C
:10025000EAF7822B88BB089541110AC025B381E0DB
:1002600090E001C0880F6A95EAF7809582230AC062
:10027000413009F525B381E090E001C0880F6A950F
:10028000EAF7822B85BB089541110AC022B381E0B1
:1002900090E001C0880F6A95EAF7809582230AC032
:1002A000413049F422B381E090E001C0880F6A95A3
:1002B000EAF7822B82BB0895823499F018F48134D6
:1002C00031F008958334B9F08434F9F008952BB3F4
:1002D00081E090E001C0880F6A95EAF782278BBB26
:1002E000089528B381E090E001C0880F6A95EAF78D
:1002F000822788BB089525B381E090E001C0880F74
:100300006A95EAF7822785BB089522B381E090E0E1
:1003100001C0880F6A95EAF7822782BB089541E001
:100320000C945D0041E00C94EF0040E00C94EF0071
:100330000C945C0140E00C945D000C94CA000E9497
:0C03400036000E943E00FDCFF894FFCF75
:00000001FF
