:100000000C942A000C946A000C943C000C943C0064
:100010000C943C000C943C000C943C000C943C0070
:100020000C943C000C943C000C943C000C943C0060
:100030000C943C000C943C000C943C000C943C0050
:100040000C943C000C943C000C943C000C943C0040
:100050000C943C0011241FBECFE5D8E0DEBFCDBF1D
:1000600020E0A0E6B0E001C01D92A136B207E1F7A2
:100070000E9459020C94BF040C94000060E081E4DB
:100080000E94490261E081E40E94490262E081E449
:100090000E9449020C94400280916000813091F0EE
:1000A00028F0823089F0833089F0089560E081E49F
:1000B0000E944F0261E081E40E944F0262E081E40D
:1000C0000C944F0260E003C061E001C062E081E493
:1000D0000C944C021F920F920FB60F9211248F9323
:1000E00080916000833018F01092600003C08F5F31
:1000F000809360008F910F900FBE0F901F90189506
:10010000823419F118F4813439F008958334A9F157
:10011000843409F44AC0089541110AC02AB381E029
:1001200090E001C0880F6A95EAF7809582230BC0A2
:10013000413009F051C02AB381E090E001C0880F3E
:100140006A95EAF7822B8ABB089541110AC027B34A
:1001500081E090E001C0880F6A95EAF780958223DC
:100160000AC04130C9F527B381E090E001C0880F93
:100170006A95EAF7822B87BB089541110AC024B320
:1001800081E090E001C0880F6A95EAF780958223AC
:100190000AC0413009F524B381E090E001C0880F26
:1001A0006A95EAF7822B84BB089541110AC021B3F6
:1001B00081E090E001C0880F6A95EAF7809582237C
:1001C0000AC0413049F421B381E090E001C0880FBA
:1001D0006A95EAF7822B81BB0895FA01823459F0BF
:1001E00018F4813431F00895833439F0843439F0CF
:1001F000089529B305C026B303C023B301C020B3BB
:1002000081E090E0062E02C0880F991F0A94E2F761
:1002100030E08223932302C0959587956A95E2F793
:1002200080830895823419F118F4813439F00895E7
:100230008334A9F1843409F44AC0089541110AC0F5
:100240002BB381E090E001C0880F6A95EAF78095B2
:1002500082230BC0413009F051C02BB381E090E004
:1002600001C0880F6A95EAF7822B8BBB0895411174
:100270000AC028B381E090E001C0880F6A95EAF7D0
:10028000809582230AC04130C9F528B381E090E00F
:1002900001C0880F6A95EAF7822B88BB0895411147
:1002A0000AC025B381E090E001C0880F6A95EAF7A3
:1002B000809582230AC0413009F525B381E090E0A2
:1002C00001C0880F6A95EAF7822B85BB089541111A
:1002D0000AC022B381E090E001C0880F6A95EAF776
:1002E000809582230AC0413049F422B381E090E036
:1002F00001C0880F6A95EAF7822B82BB0895823489
:1003000099F018F4813431F008958334B9F08434CD
:10031000F9F008952BB381E090E001C0880F6A9551
:10032000EAF782278BBB089528B381E090E001C0F3
:10033000880F6A95EAF7822788BB089525B381E084
:1003400090E001C0880F6A95EAF7822785BB08957F
:1003500022B381E090E001C0880F6A95EAF7822716
:1003600082BB0895CF92DF92EF92FF92CF93DF93FB
:10037000BC0180E090E00E9483032FE632E143E875
:100380005AE30E94E2026B017C0120E030E040E889
:100390005BE30E9452040E94CB020E945403EB01D3
:1003A00080E090E00E9483039B01AC01C701B6018D
:1003B0000E94E2020E94540391E0209759F062BF2C
:1003C00093BF08B600FEFDCF13BE88B7816088BF1B
:1003D0002197F3CFDF91CF91FF90EF90DF90CF90F7
:1003E0000895CF92DF92EF92FF92CF93DF93BC01FB
:1003F00080E090E00E9483036B017C0120E030E00C
:1004000040E85BE30E94520420E030E040E05FE31C
:100410000E945F029B01AC010E945F0220E030E07D
:1004200040E05FE30E9452040E945403EB0180E02D
:1004300090E00E9483039B01AC01C701B6010E94BA
:10044000E2020E94540391E0209759F062BF93BFEB
:1004500008B600FEFDCF13BE88B7816088BF219724
:10046000F3CFDF91CF91FF90EF90DF90CF90089581
:100470008FB780688FBF08958FB78F778FBF08952C
:100480000E94380285B7836085BF8BB780648BBFBD
:10049000089541E00C94800041E00C94120140E08A
:1004A0000C9412010C947F0140E00C9480000C9499
:1004B000ED000E943E000E944C00FDCF5058BB272B
:1004C000AA270E9476020C9400040E94F20338F0DE
:1004D0000E94F90320F039F49F3F19F426F40C949C
:1004E000EF030EF4E095E7FB0C94C003E92F0E94A4
:1004F000110458F3BA17620773078407950720F0B1
:1005000079F4A6F50C944B040EF4E0950B2EBA2F5B
:10051000A02D0B01B90190010C01CA01A001112409
:10052000FF27591B99F0593F50F4503E68F11A16B5
:10053000F040A22F232F342F4427585FF3CF469546
:1005400037952795A795F0405395C9F77EF41F1668
:10055000BA0B620B730B840BBAF09150A1F0FF0F32
:10056000BB1F661F771F881FC2F70EC0BA0F621F1E
:10057000731F841F48F4879577956795B795F7950E
:100580009E3F08F0B0CF9395880F08F09927EE0FA3
:100590009795879508950E94330490F09F3748F40B
:1005A000911116F40C944C0460E070E080E89FE335
:1005B000089526F01B16611D711D811D0C94C60344
:1005C0000C94E1030E94F6020C9400040E94F903CB
:1005D00058F00E94F20340F029F45F3F29F00C9498
:1005E000C00351110C944C040C94EF030E941104AD
:1005F00068F39923B1F3552391F3951B550BBB2752
:10060000AA2762177307840738F09F5F5F4F220F96
:10061000331F441FAA1FA9F335D00E2E3AF0E0E88D
:1006200032D091505040E695001CCAF72BD0FE2FD7
:1006300029D0660F771F881FBB1F2617370748076B
:10064000AB07B0E809F0BB0B802DBF01FF27935823
:100650005F4F3AF09E3F510578F00C94C0030C9424
:100660004C045F3FE4F3983ED4F386957795679505
:10067000B795F7959F5FC9F7880F911D9695879558
:1006800097F90895E1E0660F771F881FBB1F621777
:1006900073078407BA0720F0621B730B840BBA0B35
:1006A000EE1F88F7E09508950E94190488F09F577F
:1006B00098F0B92F9927B751B0F0E1F0660F771F86
:1006C000881F991F1AF0BA95C9F714C0B13091F07C
:1006D0000E944B04B1E008950C944B04672F782FCF
:1006E0008827B85F39F0B93FCCF386957795679541
:1006F000B395D9F73EF490958095709561957F4FAD
:100700008F4F9F4F0895E89409C097FB3EF4909552
:100710008095709561957F4F8F4F9F4F9923A9F0DA
:10072000F92F96E9BB279395F69587957795679569
:10073000B795F111F8CFFAF4BB0F11F460FF1BC0AD
:100740006F5F7F4F8F4F9F4F16C0882311F096E940
:1007500011C0772321F09EE8872F762F05C06623EE
:1007600071F096E8862F70E060E02AF09A95660FA7
:10077000771F881FDAF7880F9695879597F9089560
:1007800097F99F6780E870E060E00895882371F42E
:10079000772321F09850872B762F07C0662311F41A
:1007A00099270DC09051862B70E060E02AF09A9551
:1007B000660F771F881FDAF7880F9695879597F948
:1007C00008959F3F31F0915020F487957795679574
:1007D000B795880F911D9695879597F908959FEF86
:1007E00080EC089500240A941616170618060906C8
:1007F000089500240A941216130614060506089597
:10080000092E0394000C11F4882352F0BB0F40F41E
:10081000BF2B11F460FF04C06F5F7F4F8F4F9F4F5E
:10082000089557FD9058440F551F59F05F3F71F0E0
:100830004795880F97FB991F61F09F3F79F0879547
:100840000895121613061406551FF2CF4695F1DFD0
:1008500008C0161617061806991FF1CF8695710560
:100860006105089408950E941904A0F0BEE7B91725
:1008700088F4BB279F3860F41616B11D672F782FB8
:100880008827985FF7CF869577956795B11D9395E3
:100890009639C8F30895E894BB2766277727CB01DC
:1008A00097F908950E9465040C9400040E94F203D5
:1008B00038F00E94F90320F0952311F00C94C00346
:1008C0000C94EF0311240C944C040E94110470F357
:1008D000959FC1F3950F50E0551F629FF001729FE5
:1008E000BB27F00DB11D639FAA27F00DB11DAA1FF4
:1008F000649F6627B00DA11D661F829F2227B00D41
:10090000A11D621F739FB00DA11D621F839FA00DCB
:10091000611D221F749F3327A00D611D231F849F1B
:10092000600D211D822F762F6A2F11249F57504072
:100930009AF0F1F088234AF0EE0FFF1FBB1F661FED
:10094000771F881F91505040A9F79E3F510580F0B6
:100950000C94C0030C944C045F3FE4F3983ED4F332
:10096000869577956795B795F795E7959F5FC1F75A
:10097000FE2B880F911D9695879597F90895F89409
:02098000FFCFA7
:00000001FF
